:020000040800F2
:100000004819002041020008F33A00089D31000819
:10001000F13A000879170008654200080000000066
:10002000000000000000000000000000A90100081E
:100030001518000800000000ED010008753C0008DC
:100040005B0200085B0200085B0200085B0200081C
:100050005B0200085B0200085B0200085B0200080C
:100060005B0200085B0200085B0200085B020008FC
:100070005B0200087D1700085B0200085B020008B5
:100080005B0200085B0200085B0200085B020008DC
:100090005B0200085B0200085B0200085B020008CC
:1000A0005B0200085B0200085B0200085B020008BC
:1000B0005B020008013D00085B0200085B020008CB
:1000C0005B0200085B0200085B0200085B0200089C
:1000D0005B0200085B0200085B020008594200084E
:1000E0005B0200085B0200085B02000800F002F8F7
:1000F00000F04AF80AA090E8000C82448344AAF178
:100100000107DA4501D100F03FF8AFF2090EBAE875
:100110000F0013F0010F18BFFB1A43F0010318473B
:10012000D4A40000F4A40000103A24BF78C878C119
:10013000FAD8520724BF30C830C144BF04680C60ED
:10014000704700000023002400250026103A28BF35
:1001500078C1FBD8520728BF30C148BF0B60704739
:10016000662908F07A85642900F0D4800020704761
:100170001FB500F067FD04000020002107F03AFDE4
:10018000E0601FBD10B510BD00F060FE1146FFF726
:10019000EFFF05F09DFB00F07EFE03B4FFF7F2FFDA
:1001A00003BC00F0C1FE0000224B19680868B0E8EB
:1001B000F00F80F30988BFF36F8F4FF0000080F3DA
:1001C00011884EF00D0E70470000000006480068D0
:1001D000006880F3088862B661B6BFF34F8FBFF343
:1001E0006F8F00DF00BF00BF08ED00E0EFF3098074
:1001F000BFF36F8F0F4B1A6820E9F00F106008B53E
:100200004FF0500080F31188BFF34F8FBFF36F8F13
:1002100007F0C0F84FF0000080F31188BDE80840F7
:1002200019680868B0E8F00F80F30988BFF36F8F92
:10023000704700BF9C000020EFF30580704700006E
:100240000948804709480047FEE7FEE7FEE7FEE76A
:10025000FEE7FEE7FEE7FEE7FEE7FEE704480549A6
:10026000054A064B70470000FF3C0008ED000008FF
:100270004813002048190020481500204815002088
:1002800010B54C1084EA530404D54042C1F100017A
:1002900038BF491E1B4204D55242C3F1000338BF88
:1002A0005B1E00F0A4F914F0804F04D04042C1F16D
:1002B000000138BF491E14F0004F04D05242C3F170
:1002C000000338BF5B1E10BD0FB41CB5074B06AA58
:1002D0007B4469460090059800F079FC002069464F
:1002E00000F088FC1CBC5DF814FB00002109000034
:1002F00009684A0501D540B27047C905FCD500B26E
:10030000704709684A0501D5C0B27047C905FCD5D8
:1003100080B270472DE9F041064600241068752927
:10032000314616A510D0FFF7E3FF002802DA40425D
:1003300013A507E031688A0701D512A502E0490735
:1003400004D511A5012401E0FFF7DBFF00210A22FB
:1003500006F1240709E0B0FBF2FCB0FBF2F302FB6C
:100360001C00303078541846491C0028F3D123462D
:100370002A463046BDE8F04100F0BBB9000000005D
:100380002D0000002B000000200000002DE9F041AE
:100390000F460546002028622846E968884770B362
:1003A000252805D0D5E901219047286A401CF2E7AD
:1003B000E9682846002688476C2804460AD0682C3D
:1003C00008D04C2C35D06A2C31D0742C31D07A2CFA
:1003D0002FD016E0E968064628468847B042044612
:1003E00008D16C2E23D04FF480662846E9688847F0
:1003F000044606E06C2E03D04FF4807601E01EE048
:100400004026E4B1A4F14100192802D8203446F472
:1004100000663A46214628462E60FFF7A1FE60B1ED
:10042000012808D0FF1D27F007070837B4E780260A
:10043000DBE70026D9E73F1DAEE72046B2E7286A92
:10044000BDE8F08140EA010310B59B070FD1042AF3
:100450000DD310C808C9121F9C42F8D020BA19BA8F
:10046000884201D9012010BD4FF0FF3010BD1AB1F4
:10047000D30703D0521C07E0002010BD10F8013B49
:1004800011F8014B1B1B07D110F8013B11F8014B70
:100490001B1B01D1921EF1D1184610BD032A40F258
:1004A000308010F0030C00F0158011F8013BBCF116
:1004B000020F624498BF11F801CB00F8013B38BF2E
:1004C00011F8013BA2F1040298BF00F801CB38BF3C
:1004D00000F8013B11F0030300F02580083AC0F05A
:1004E000088051F8043B083A51F804CBA0E8081002
:1004F000F5E7121D5CBF51F8043B40F8043BAFF335
:100500000080D20724BF11F8013B11F801CB48BF8E
:1005100011F8012B24BF00F8013B00F801CB48BFC4
:1005200000F8012B704710B5203AC0F00B80B1E8FD
:100530001850203AA0E81850B1E81850A0E8185018
:10054000BFF4F5AF5FEA027C24BFB1E81850A0E821
:10055000185044BF18C918C0BDE810405FEA827C3B
:1005600024BF51F8043B40F8043B08BF7047D20752
:1005700028BF31F8023B48BF11F8012B28BF20F8F3
:10058000023B48BF00F8012B704702F0FF0343EA2B
:10059000032242EA024200F034BB4FF0000200B5F1
:1005A000134694469646203922BFA0E80C50A0E896
:1005B0000C50B1F12001BFF4F7AF090728BFA0E844
:1005C0000C5048BF0CC05DF804EB890028BF40F810
:1005D000042B08BF704748BF20F8022B11F0804F52
:1005E00018BF00F8012B704770477047704753EAF7
:1005F000020C00F069802DE9F04B4FF00006002B53
:100600001FBFB3FA83F503FA05F424FA05F65E403A
:1006100012BF1643B2FA82F502FA05F4C5F12005BD
:100620001EBF22FA05FC44EA0C04203556EA044CAD
:100630004FEA144418BF641C4FF000084FF0000943
:10064000904271EB030C39D3002919BFB1FA81F73D
:1006500001FA07F6B0FA80F700FA07F6C7F12007AB
:100660001EBF20FA07FC46EA0C062037B6FBF4FC56
:10067000A7EB0507103F07F01F0BCBF120060CFA84
:100680000BFB2CFA06F644BFB3460026202FA4BF6E
:100690005E464FF0000B5BEA060C08BF4FF0010B03
:1006A00019EB0B09ABFB027C48EB0608C01B06FBF1
:1006B00002CC0BFB03CC71EB0C01C1E70B460246ED
:1006C00041464846BDE8F08B13B54FF000004FF0AF
:1006D0000001AFF30080BDE81C40704710B500F08A
:1006E000B5FA006810BD10B5044600F0AFFA04601A
:1006F00010BD2DE9F0470D4699469246044600F19B
:1007000024080168880604D5E06921F01001216001
:1007100000E00120A84201DD471B00E00027A1699D
:100720007A1902EB0900081AA0612078C00602D4E9
:100730002046AFF30080002608E0D4E901211AF832
:1007400006009047206A401C761C20624E45F4DB70
:100750002078C0060AD52046AFF3008006E0D4E931
:10076000012130209047206A401C2062381EA7F1EA
:100770000107F4DC07E0D4E9012118F805009047EF
:10078000206A401C2062281EA5F10105F3DC2046EA
:10079000AFF300802078000602D50220BDE8F08784
:1007A0000120FBE770472DE9FF4F0C461E464FF036
:1007B000FF378BB0D2E90001DDF860800A908A46ED
:1007C000C1F30A5505B93D46002108464FF0000027
:1007D000BAF1000F00F4400005DA00EB80004FF49E
:1007E000400101EA50004FEA9059B9F1010F00DDD4
:1007F000B9460A9850EA4A000ED044F61050A5F2C5
:10080000FF3545432F14B8F1000F1ED07542291E45
:100810001EDDC9F100021CE0B8F1010F4FF000002D
:1008200001D0302103E0F24305E02154401CB042E6
:10083000FBDB30460022002121540B99C1F80880CF
:10084000C1E900200FB0BDE8F08FBD1B6D1CDEE7D5
:100850004A4600DA694206A800F082FA06AB93E83D
:10086000070003AB83E8070050460A9900F063FBDA
:100870008DE80700A0F500501F3800900398002D68
:100880000ADD42F21F014A460844002303A90390EF
:10089000684600F0CCFD09E0A0F500504A461F383C
:1008A000002303A90390684600F0D6FD8DE80700F9
:1008B0000004000C03D04FF0FF30410800E0104668
:1008C000B8F1000F03D00022009215461EE0751EFD
:1008D00005D400F0BFF9303262556D1EF9D5B3462C
:1008E0000122084302D000227F1C04E02078302837
:1008F00001D100227F1E002A099784D01DE0112D0E
:1009000007DA00F0A7F9303262556D1C50EA010297
:10091000F5D1084302D00098C8B10EE00021681E4E
:1009200005E0235C625C63542254401E491C8142F2
:10093000F7DBAB46A81B401E0990002004F80B0013
:100940000B98099AC0F80880C0E9002B7AE71126B5
:100950004FF0000857E72DE9F04F88460446D21DB6
:1009600022F0070191B0D1E90001CDE90A0103F0BD
:1009700095FC02460B98C00F01D02D2007E020689F
:10098000810701D52B2002E0202101EAC000032AC3
:10099000099001D0072A05DB03464146204600F0B6
:1009A0009FF90BE12078800601D5E06900E0062080
:1009B000B8F1650F814606D0B8F1660F18D0B8F1CE
:1009C000670F70D131E00020B9F1110F009001DB09
:1009D000112301E009F101030AAA01A90CA8FFF7FC
:1009E000E2FEDDE90C70002609F10105834647E0CF
:1009F00001204B4600904FF000470AAA01A90CA81D
:100A0000FFF7D1FEDDE90DB00C995D46002610B967
:100A100009F101000D18B9EB050003D4C0F1FF3650
:100A200009F10105A5EB09002BE0B9F1010F01DA8D
:100A30004FF001090020B9F1110F0090484601DD87
:100A4000112300E003460AAA01A90CA8FFF7ABFE98
:100A5000DDE90C704D4600268346207800070AD455
:100A6000AB4500DA5D4601A8012D04DD411911F8FE
:100A7000011C302907D04F4502DA17F1040F04DAC0
:100A8000012082460FE06D1EEEE7002F02DCED1B19
:100A90003E4403E0781CA84200DD7D1CB81B00F139
:100AA000010A4FF000472078000703D4AA4501DB74
:100AB0004FF0FF3A0021B7F1004F0DF143088DF8D8
:100AC000431024D002202B23002F01DA7F422D2354
:100AD0000A21021EA0F1010000DC5FB197FBF1FCCE
:100AE00097FBF1F201FB1C7C17460CF1300C08F867
:100AF00001CDEEE7A8F1010003702188090501D5B9
:100B0000452100E06521A0F1010800F8011C0998C9
:100B10000FA9A1EB0807FF1D00B10120411901EB4E
:100B2000EA70A1693844081A401EA0612078C00606
:100B300002D42046AFF30080099828B1D4E90121FE
:100B40009047206A401C20622078C00622D52046AB
:100B5000AFF300801EE0002E04DBB34502DD01A8E8
:100B6000805D00E03020D4E901219047206A401CDC
:100B70002062761CAAF101005FEA000A0AD100F0A7
:100B800061F8C0680168405CD4E901219047206A9F
:100B9000401C2062281EA5F10105DCDC07E0D4E939
:100BA000012118F8010B9047206A401C2062381E72
:100BB000A7F10107F3DC2046AFF30080032011B05A
:100BC00041E6000001694A1C02610878704700B5DF
:100BD0008FB0CDE901310021059105497944CDE976
:100BE000031011466846FFF7D1FB0FB000BD0000AF
:100BF000E5FFFFFF0A6802F8010B0A6070474FF03B
:100C000000020429C0F0128010F0030C3FF4C7ACBE
:100C1000CCF1040CBCF1020F18BF00F8012BA8BFE7
:100C200020F8022BA1EB0C01FFF7B9BC5FEAC17CF5
:100C300024BF00F8012B00F8012B48BF00F8012B5E
:100C400070470000004870470413002000487047B8
:100C5000E412002030B5B0F10A024FEA900E71F1B3
:100C600000034EEA817EB0EB0E0061EB91014FEA8A
:100C7000101E4EEA017E10EB0E0041EB11114FEAFF
:100C8000102E4EEA016E10EB0E0041EB11214FEADF
:100C9000104E4EEA014E10EB0E0041EB1141401890
:100CA00041F100014FEAD00040EA41704FEAD10122
:100CB00010EB80054FEA810444EA907444EB010490
:100CC0006D1944EB0404521BA3414FF0000348BFCD
:100CD0000A3200D530BD401C41F1000130BD00009A
:100CE0002DE9F0411F46044603260168072A01F456
:100CF000006004DB08B116A505E016A503E008B105
:100D000015A500E015A521F010002060A069C01E07
:100D1000A0610FB1401EA0612046AFF300804FB12B
:100D2000D4E9012138469047206A401C2062C01C4B
:100D3000206206E0206AFAE7D4E9012115F8010BE8
:100D40009047761EF8D22046AFF30080BDE8F081D0
:100D50004E414E006E616E00494E4600696E66005F
:100D60002DE9F047814616468AB0354878440DC8CB
:100D70008DE80D0032487844801C03AC0DC884E82F
:100D80000D0041F69B300844372190FBF1F290FBB7
:100D9000F1F5A5F1800501FB12041B3C02D564426C
:100DA000012000E00020DFF898A080460027FA44E8
:100DB000AAF1BE0A0EE0E0070AD03246684607EB09
:100DC000470101230AEB810100F046FB8DE8070093
:100DD00064107F1C002CEED1194F7F44AE3F19E008
:100DE000E80715D007EB04100DF1180A90E80E0083
:100DF0008AE80E00C068F04201D198190890324686
:100E0000012306A903A800F027FB03AB83E8070032
:100E10006D10641C002DE3D14FF00103324669468A
:100E2000B8F1000F03A802D000F001FB01E000F0D0
:100E300013FBC9E90001C9F808200AB0BDE8F08732
:100E40004498000000487047E41200207546FFF700
:100E5000F9FFAE4605006946534620F00700854677
:100E600018B020B5FFF7FAF9BDE820404FF00006B2
:100E70004FF000074FF000084FF0000B21F0070182
:100E8000AC46ACE8C009ACE8C009ACE8C009ACE8C5
:100E9000C0098D46704710B50446AFF30080204668
:100EA000BDE81040FFF779B94FF0013C50F8042B32
:100EB00051F8043B9A4221D1A2EB0C03934313EA6D
:100EC000CC1317D150F8042B51F8043B9A4215D19A
:100ED000A2EB0C03934313EACC130BD150F8042B71
:100EE00051F8043B9A4209D1A2EB0C03934313EA55
:100EF000CC13DBD04FF00000704700BFD01A01BA0E
:100F0000B1FA81F101F0180122FA01F0CB40C1F1F0
:100F10002001DBB2C0B2C01A2CFA01F3D11A9143FE
:100F200011EAC311E6D1704701491820ABBEFEE7B4
:100F30002600020070475FEA400C08BF91F0000FE6
:100F40004FEA8C234FEAC12243EA51514FEA1C5029
:100F500018BF00F5F0404FEA300018BF41F00041E3
:100F60005FEA6C5C00F02980BCF1FF3F08BF40F0F5
:100F700080407047130C06BF12044FF0100C4FF066
:100F8000000C130E04BF12020CF1080C130F04BF67
:100F900012010CF1040C930F04BF92000CF1020C2F
:100FA000D30F04BF52000CF1010C11464FF00002A8
:100FB000A0F11F00A0EB0C00704711F0004F08BF1C
:100FC000704731F000413FF4D5AF0B0C06BF090468
:100FD0004FF0100C4FF0000C0B0E04BF09020CF187
:100FE000080C0B0F04BF09010CF1040C8B0F04BF9C
:100FF00089000CF1020CCB0F04BF49000CF1010C6D
:10100000CCF12003A0EB0C0022FA03F302FA0CF25D
:1010100041EA030100F10100704720F07F4C80EAB3
:10102000030023F07F47ACEB070303F57C5300F08C
:10103000004003F1FF032DE980494FEA154B09B445
:101040004FEA144325EA0B4E24EA03480FF2042624
:1010500006EB132749083E785FEA320203FB066776
:10106000C7F5000707FB06F64FEA54374FEAD646A6
:1010700006F1020607FB066CCCF1005C4FEA1C4748
:101080002CEA074C07FB06F40CFB06F504EB1546AF
:101090004FEA961634BF00204FF000404FEAD13798
:1010A00006FB07FC4FEA1C4C0CFB0BF7D21B03FBA7
:1010B0000CF761EB07010CFB0EF7B0EB074072EB8E
:1010C00017420CFB08F734BFA2EB0742B2EB074212
:1010D00061EB17414FEA0C444FEA910706FB07FC0E
:1010E0004FEA1C4C0CFB0BF7B0EBC74072EB5732CE
:1010F00003FB0CF734BFA2EBC742B2EBC74261EB74
:1011000057310CFB0EF7B0EBC70072EB57720CFBBC
:1011100008F734BFA2EBC702B2EBC70261EB57710D
:10112000039F4FEA816141EA921104EBCC044FEA3C
:10113000D1374FEA826206FB07FC42EA90124FEA7F
:1011400080604FEA1C4C0CFB0BF7D21B03FB0CF727
:1011500061EB07010CFB0EF7B0EB074072EB174297
:101160000CFB08F734BFA2EB0742B2EB074261EB7E
:1011700017414FEA8C554FEA910704EB9C2406FB7C
:1011800007FC4FEA1C4C0CFB0BF7B0EBC74072EBB3
:10119000573203FB0CF734BFA2EBC742B2EBC74296
:1011A00061EB57310CFB0EF7B0EBC70072EB5772D7
:1011B0000CFB08F734BFA2EBC702B2EBC70261EB2E
:1011C000577115EB4C254FEA816141EA92114FEAC4
:1011D00082624FEAD13742EA901206FB07FC44F1E3
:1011E00000044FEA80604FEA1C4C0CFB0BF7D21B4B
:1011F00003FB0CF761EB07010CFB0EF7B0EB0740AC
:1012000072EB17420CFB08F734BFA2EB0742B2EBBC
:10121000074261EB174115EB1C154FEA813141EA9A
:1012200092414FEA823242EA90424FEA80304FEADE
:101230000C7644F1000448EA03434EEA0B484FF0B1
:10124000000EB2EB080C71EB030724BF624639466F
:101250004EEB0E0E4FF0000B0018524149414BEB84
:101260000B0BB2EB080C71EB03077BF1000B24BFF7
:10127000624639464EEB0E0E4FF0000B00185241FD
:1012800049414BEB0B0BB2EB080C71EB03077BF105
:10129000000B24BF624639464EEB0E0E51EA0207A0
:1012A00018BF46F0010616EB0E7655F1000254F118
:1012B000000103D5BDE88901BDE80088BDE88901CA
:1012C000BDE80048B619524141EB0101A3F1010309
:1012D000704780807F7E7D7C7B7A797877767675A3
:1012E0007473727171706F6E6E6D6C6C6B6A6A691B
:1012F0006868676666656464636362616160605FB5
:101300005F5E5E5D5D5C5C5B5B5A5A59595858572D
:101310005756565555555454535352525251515095
:1013200050504F4F4F4E4E4D4D4D4C4C4C4B4B4BE8
:101330004A4A4A494949484848474747474646462E
:101340004545454444444443434343424242424169
:101350004141002B9C4630D477002BD01CB54FEA7E
:10136000370703B44FF010004FF01001BAF1000F2F
:1013700006D0BCF1000FDCBF40F0080040F00801CF
:101380004FF000000FBCBDE810400BF1010BBBF1AA
:10139000010F08BF5FEA170722BF12F1010211F126
:1013A00001014FF0004143F1000300F0004043EA27
:1013B00000007047F9D35708D0E746EA064613F114
:1013C000400F4FEA16461FDD13F1200FDFBF164313
:1013D0000A46002120335B42BED0C3F1200746EA13
:1013E000064602FA07F74FEA164646EA0706C3F131
:1013F000200722FA03F201FA07F721FA03F14FF06E
:10140000000342EA0702A7E746EA020646EA064662
:101410004FEA164646EA0106BCBF46EA0646360CC7
:101420004FF000034FF000024FF0000194E72DE968
:10143000804C9A46934670B491E8380007C831EA68
:10144000400C48BF34EA430C03D5FFF7E6FDFFF735
:1014500080FFF0BCBDE8008C2DE9804C9A46934695
:1014600070B491E8380007C810F0804F08BF13F03F
:10147000804F03D100F005F8FFF76BFFF0BCBDE82B
:10148000008C20F07F4780EA030023F07F4C07EBBD
:101490000C03A3F57C5300F00040A3F1FE0392F08F
:1014A000000F00F0B38095F0000F00F077802DE979
:1014B00001494FEA11404FEA144621EA004800FB77
:1014C00006FC24EA064708FB06F607FB08F800FBC3
:1014D00007F718EB06484CEB164C4FEA124B18EB8B
:1014E00007484FEA15464CEB174022EA0B4E0BFB20
:1014F00006FC25EA06470EFB06F607FB0EFE0BFB75
:1015000007F71EEB064E4CEB164C4FF000061EEB99
:10151000074E4CEB174B18EB0B0840F1000018EB93
:101520000E0B58EB000840F100008F1A4FF000013D
:101530003CBFC943661B14BFB5EB040C00213CBF84
:10154000C943F61B4FEA17444EEA8E0E27EA0445BC
:101550004FEA1C4704FB07622CEA074C05FB07F720
:101560000CFB05F604FB0CFC16EB074642EB17429E
:1015700016EB0C4642EB1C421BEB060658EB020234
:10158000414146EA9E0601D5BDE80189B61952419E
:1015900041EB0101A3F10103BDE801894FEA1445C4
:1015A0004FEA114724EA054621EA074C05FB07F4F8
:1015B00006FB07F70CFB06F105FB0CFC11EB0741E2
:1015C00044EB17444FEA124711EB0C4144EB1C4427
:1015D00022EA074C05FB07F206FB07F70CFB06F6B1
:1015E00005FB0CFC16EB074642EB174216EB0C46CC
:1015F00042EB1C456A1854F1000148BF7047B61908
:10160000524141EB0101A3F10103704795F0000F36
:1016100037D04FEA11424FEA144721EA024624EA42
:10162000074C02FB07F106FB07F70CFB06F402FB75
:101630000CFC14EB074441EB17414FEA154714EB40
:101640000C4441EB1C4125EA074C02FB07F506FB65
:1016500007F70CFB06F602FB0CFC16EB074645EB06
:10166000174516EB0C4645EB1C42121951F10001CF
:1016700048BF7047B619524141EB0101A3F1010384
:1016800070474FEA14454FEA114724EA054621EA1C
:10169000074C05FB07F106FB07F70CFB06F24FF0C2
:1016A000000605FB0CFC12EB074241EB174112EB65
:1016B0000C4251EB1C4148BF7047921841EB0101AD
:1016C000A3F101037047000086B00022032105202A
:1016D00005F040FF1A49032248601A4801F036FD20
:1016E000194C00BF00F066F8B4F90C2017A1684649
:1016F000FEF7EAFD002110236A46084602F072FA5E
:10170000B4F9102015A16846FEF7DEFD10236A46E5
:101710000221002002F066FA606806F095FF02469A
:101720000B4612A16846FEF7CFFD10236A4604213E
:10173000002002F057FA1E2005F0A2FDD2E70000BB
:1017400070000020200500208C0100206779726F56
:101750005F783A2568642020000000006779726F86
:101760005F7A3A256864202000000000726F6C6C7C
:101770003A25662020200000FEE70000014800F026
:10178000BBB800006805002030B590F84050012437
:10179000AC40C56B6C60046863604368102B0368E1
:1017A00003D099600068C26030BD9A600068C16073
:1017B00030BD0000144810B500221249006805F041
:1017C0008FFF10480178AA290FD18178BB290CD14D
:1017D00042780E480E49052A07D2DFE802F00307D7
:1017E000090D0F00002202800A8010BD142101E0C3
:1017F0006FF01301018010BD232001E06FF0220083
:10180000088010BD780000207400002038000020FF
:101810003A000020704772B6FEE710B590F821102C
:101820000022022905D00421816380F820200120B4
:1018300010BD01680B6823F00E030B6001680B6894
:1018400023F001030B6090F84030C46B012101FAD2
:1018500003F3636080F8211080F82020104610BD4B
:1018600010B590F821100024022903D004218163CF
:1018700001243DE001680A6822F00E020A60016856
:101880000A6822F001020A601A4A0168914201D1F5
:10189000012121E0174A1432914201D110211BE0AD
:1018A000144A2832914201D1891515E0114A3C327F
:1018B000914201D189140FE00E4A5032914202D177
:1018C0004FF4803108E00B4A6432914202D14FF468
:1018D000801101E04FF08071064A083A5160012101
:1018E00080F82110002180F82010416B01B1884759
:1018F000204610BD080002402DE9F05FC16B0C6866
:1019000001680B68D0F840C0042202FA0CF2494D7D
:10191000DFF824A1494E4A4FDFF828B1DFF828E16B
:1019200022422CD05A072AD50A68920603D40A68A4
:1019300022F004020A600168A94201D1042219E0E0
:10194000514501D1402215E0B14202D14FF48062ED
:1019500010E0B94202D14FF480420BE0594502D168
:101960004FF4802206E0714502D14FF4800201E07D
:101970004FF080622F4908394A60C16A3BE04FF05E
:10198000020808FA0CF818EA040F4FF000094FF0AB
:10199000010235D05FEA837832D50B689B0605D407
:1019A0000B6823F00A030B6080F821200168A9422C
:1019B00001D1022219E0514501D1202215E0B142A6
:1019C00002D14FF4007210E0B94202D14FF400523C
:1019D0000BE0594502D14FF4003206E0714502D1C7
:1019E0004FF4001201E04FF00072124908394A60CA
:1019F00080F82090816A00291AD0BDE8F05F08477E
:101A0000082505FA0CF5254212D01B0710D50B68E6
:101A100023F00E030B6090F84010C36B02FA01F143
:101A20005960826380F8212080F82090016BE2E702
:101A3000BDE8F09F080002401C0002403000024058
:101A400044000240580002406C00024030B528B308
:101A500008C8134914221944B1FBF2F18900C1638B
:101A600010498163022141771A6843F6F0718A4375
:101A7000D0E900142143D0E902452C4321430469F5
:101A800021434469214384692143114319600021A2
:101A90004163012242770177084630BD012030BD05
:101AA000F8FFFDBF0000024070B5044690F820002A
:101AB000002501280CD0012084F8200094F8216032
:101AC0000020012E06D084F820000225284670BD93
:101AD000022070BD022684F82160A0632068066899
:101AE00026F0010606602046FFF74EFEE06A002859
:101AF0002068016802D041F00E0106E021F00401E7
:101B000001602068016841F00A01016020680168F5
:101B100041F001010160D9E770B5044600F008F911
:101B20000546601C02D004480078044400F000F927
:101B3000401BA042FAD370BD8C0000202DE9F84F65
:101B4000DFF8B8910024A9F1040B23460F2709F10F
:101B5000040AABF1040EC9E00125A5402A40AA42BF
:101B60007DD1674ED1F804C0ACEB0608B44532D045
:101B700014DCBCF1030F3AD009DCBCF1000F2AD011
:101B8000BCF1010F1CD0BCF1020F31D11DE0BCF142
:101B9000110F17D0BCF1120F2AD119E0B8F5881F28
:101BA00019D006DCB8F5803F15D0B8F5801F1FD1DD
:101BB00011E0B8F5001F0ED0B8F5041F18D10AE0E7
:101BC000CB6815E0CB681B1D12E0CB6808330FE033
:101BD000CB680C330CE08B682BB1012B4FF0080362
:101BE00003D0456104E0042302E0056100E0002326
:101BF000FF2A01D8064601E000F104064FEA8405F9
:101C000001D9A5F12005D6F8008007FA05FC28EADD
:101C10000C0803FA05F548EA0508C6F800804D6887
:101C2000ED0062D5374DAE6946F00106AE61AD6993
:101C300024F0030605F001050095334D06EB050C75
:101C4000DCF80850A607360F07FA06F825EA08055B
:101C5000DFF8B880404503D14FF0000817E044E0BA
:101C6000DFF8AC80404502D14FF001080FE0DFF80B
:101C7000A480404502D14FF0020808E0DFF89880C8
:101C8000404502D14FF0030801E04FF0040808FA84
:101C900006F848EA0508CCF808804D68D9F80060D5
:101CA000ED024D4601D5164300E096432E604D6887
:101CB000DAF80060AD02554601D5164300E09643C0
:101CC0002E604D68DBF80060AD035D4601D516431C
:101CD00000E096432E604D68DEF80060ED03754627
:101CE00001D5164300E096432E60641C0D682A4619
:101CF000E5407FF431AFBDE8F88F000008040140F3
:101D000000001110001002400000014000080140D6
:101D1000000C0140001001400014014080680840A0
:101D200000D0012070470AB1016170470904FBE748
:101D300001488068704700008C00002070B50400E6
:101D400025D094F83D00002520B984F83C50204669
:101D500000F050F9242084F83D002068016821F04B
:101D6000010101602068016841F4004101602068C0
:101D7000016821F40041016000F0F4FA4D4A616805
:101D8000914201D84C4900E04C49884201D20120DF
:101D900070BD4B492368B0FBF1F15E6826F03F0649
:101DA0000E435E606368934206D94FF496735943BD
:101DB0004FF47A73B1FBF3F12368491C1E6A26F0D5
:101DC0003F06314319626168914210D84900401EB4
:101DD000B0FBF1F2521CC2F30B02042A01D2042020
:101DE00022E0B0FBF1F0401CC0F30B001CE0A26845
:101DF000F2B301EBC10303EB0116431EB3FBF6F391
:101E00005B1C43F480431B0549D092B301EBC10234
:101E100002EB0111401EB0FBF1F0401CC0F30B00BF
:101E200040F4804040F400402168CA694CF6FF73DA
:101E30009A431043C861D4E907100143206802683F
:101E400022F0C00211430160D4E90301014320687C
:101E5000826848F2FF339A4311438160D4E9050157
:101E600008432168CA6822F0FF021043C86001E0FD
:101E70000EE016E02068016841F001010160256470
:101E8000202084F83D00256384F83E50002070BD7A
:101E900001EB4106431EB3FBF6F35B1CB3E70120E5
:101EA000C2E701EB4101401EB0FBF1F0401CC0F362
:101EB0000B00B7E7A086010080841E0000093D00EA
:101EC00040420F002DE9FF4F83B09A46DDE911979C
:101ED00093460446DDF84080FFF72AFF054694F854
:101EE0003D0020287FD1192301224049204600953A
:101EF00001F0ECF9002876D194F83C00012872D06A
:101F0000012084F83C0020680168C90703D10168FA
:101F100041F0010101602068016821F40061016065
:101F2000212084F83D00402084F83E0000262664ED
:101F3000C4F82480A4F82A90608D20852C48E062A3
:101F4000CDE9007553465A462046049901F03EF902
:101F500070B930E02A463946204601F05DFA58B1A2
:101F6000206C042804D12068016841F400710160EC
:101F7000012007B0BDE8F08F606A21680078086131
:101F8000606A401C6062218D491E89B22185628D84
:101F9000521E628522685369DB435B070BD469B12B
:101FA00000781061606A401C6062208D401E2085B0
:101FB000608D401E6085208D0028CBD12A46394691
:101FC000204601F057F90028CAD154F83D0B0168AA
:101FD00041F400710160202004F81E09E67766775D
:101FE0000020C6E7FFE70220C3E700000200100060
:101FF0000000FFFF10B586B0002100910191029111
:10200000039100681349884222D1134CA06940F023
:102010000800A061A069694600F0080004904FF430
:102020004070009012200190032003900B48FFF7AE
:1020300085FD0B48416841F0E06141F002014160DB
:10204000E06940F40010E061E06900F400100490E1
:1020500006B010BD0054004000100240000C0140CA
:102060000000014002488168027811448160704795
:102070008C000020074810B5016841F01001016094
:10208000032000F0A7F80F2000F006F800F050F849
:10209000002010BD0020024030B505461F4887B023
:1020A000C16941F00201C161C06906A900F00200E6
:1020B000009001A800F036F90498B0B100F052F990
:1020C00040001749174AB0FBF1F11748491E02605A
:1020D000416040F2E7320021C0E903218160816163
:1020E00000F076FB040003D015E000F03BF9E8E7D0
:1020F0000D4800F09BFB04000DD11D2000F03CF8C2
:10210000102D07D2002229461D2000F043F8074871
:10211000056000E0012407B0204630BD00100240F9
:1021200040420F0000040040AC0500209000002059
:102130000F4808B5816941F001018161816901F0B1
:1021400001010091C16941F08051C161C069002263
:1021500000F0805000900F21901E00F01BF8054801
:10216000416821F0E06141F00071416008BD00006C
:102170000010024000000140002809DB00F01F02AF
:10218000012191404009800000F1E020C0F80011D9
:1021900070470000F0B40E4B1B680C46C3F30223DB
:1021A000C3F10705042D00D90425191D072901D203
:1021B000002300E0DB1E012606FA05F1491E21403E
:1021C00099409E40761E16403143F0BC02F07AB82A
:1021D0000CED00E0064900F0070208684FF6FF0327
:1021E000184040EA0220034A10430860704700008C
:1021F0000CED00E00000FA052DE9F0470F46050060
:1022000061D0434E306800F00700B84209D2306810
:1022100020F0070038433060306800F00700B84213
:1022200051D128683B4C810712D5400703D560681F
:1022300040F4E06060602878000703D5606840F4EF
:10224000605060606068A96820F0F000084360603A
:102250002878C00728D06868012810D02168022893
:1022600010D0890700292EDA616821F003010143AB
:102270006160FFF75DFD804641F288390DE021681D
:102280008903EFE78901EDE7FFF752FDA0EB0801B5
:10229000494502D90320BDE8F0876068696800F00D
:1022A0000C00B0EB810FEFD1306800F00700B842AE
:1022B0000BD9306820F0070038433060306800F0F8
:1022C0000700B84201D00120E5E72878400705D58E
:1022D0006068E96820F4E0600843606028780007DF
:1022E00006D56068296920F4605040EAC10060604A
:1022F00000F058F86168084AC1F30311515CC84006
:102300000649086006480068FFF7C6FE0020C2E7DD
:1023100000200240001002402EA400089800002077
:10232000900000200F2202600C4A536803F0030360
:102330004360536803F0F0038360536803F4E06381
:10234000C36052684FF4E06303EAD20202610448BA
:10235000006800F0070008607047000000100240AD
:10236000002002400448054900684968044AC1F356
:102370000221515CC84070479800002000100240C4
:102380003EA400080448054900684968044AC1F3AE
:10239000C221515CC84070479800002000100240E4
:1023A0003EA400080E4A51680E4801F00C03042BAD
:1023B00011D0082B0FD10C48C1F38343C903C05C73
:1023C0000AD55168084AC1F34041921E515C054A42
:1023D0005043B0FBF1F07047044948437047000098
:1023E0000010024000127A001EA4000800093D00FF
:1023F0002DE9F84F040070D02078C04DC00749D0B7
:102400006868C0F38100012807D06868C0F38100C4
:10241000022809D16868C00306D52868800339D529
:1024200060680028E7D035E06068B0F5803F0BD0E9
:1024300010B1B0F5A02F11D0286820F480302860AA
:10244000286820F4802002E0286840F4803028606A
:10245000606890B1FFF76CFC06460AE0286840F41B
:1024600080202860F0E700BFFFF762FC801B642833
:1024700073D828688003F7D50CE0FFF759FC0646AF
:1024800005E000BFFFF754FC801B6428F0D82868E3
:102490008003F7D420789A4E80074FF001094FF05F
:1024A000000839D5686810F00C0F07D06868C0F3D1
:1024B0008100022809D16868C00306D42868800713
:1024C00014D52069012808D110E02069B0B1C6F800
:1024D0000090FFF72DFC074605E00AE1FFF728FC16
:1024E000C01B0228C4D828688007F7D5286861690E
:1024F00020F0F80040EAC10028600DE0C6F8008036
:10250000FFF716FC074604E0FFF712FCC01B022889
:1025100023D828688007F7D4207800072CD579487D
:10252000A169D9B1C0F80090FFF702FC074604E0AA
:10253000FFF7FEFBC01B02280FD8686A8007F7D59B
:1025400071484FF4FA510068B0FBF1F0009000BF01
:102550000098411E0091FAD20EE080E0C0F80080A1
:10256000FFF7E6FB074604E0FFF7E2FBC01B02288B
:1025700075D8686A8007F7D42078400760D5E86985
:102580000027C00008D4E86940F08050E861E8699D
:10259000012700F0805000905C480168C90513D401
:1025A0000168834641F480710160FFF7C1FB8246F8
:1025B00006E000BFFFF7BCFBA0EB0A0064284ED882
:1025C000DBF80000C005F5D5E06801280AD008B1A5
:1025D000052813D0286A20F001002862286A20F01C
:1025E000040002E0286A40F001002862E06841F23D
:1025F000883B98B1FFF79CFB82460BE0286A40F0CD
:1026000004002862EEE700BFFFF792FBA0EB0A018F
:1026100059455AD8286A8007F6D50CE0FFF788FBA1
:10262000824605E0FFF784FBA0EB0A0159454CD830
:10263000286A8007F6D41FB1E86920F08050E8616D
:10264000E06988B36968C1F38101022944D0022896
:10265000C6F8608004D0FFF76BFB044638E034E036
:10266000FFF766FB074604E0FFF762FBC01B02288A
:102670002BD828688001F7D4206AB0F5803F05D1B7
:102680006868A16820F4003008436860D4E9080154
:102690000843696821F4741108436860C6F86090C3
:1026A000FFF746FB044606E025E000BFFFF740FBCE
:1026B000001B022809D828688001F7D51BE000BF5D
:1026C000FFF736FB001B022802D90320BDE8F88F74
:1026D00028688001F4D40EE00128F7D06868226AE7
:1026E00000F48031914204D1616A00F47010884294
:1026F00001D00120EAE70020E8E7000000100240D6
:1027000000004242800442429800002000700040D5
:102710007047704710B590F83C20012A22D0012262
:1027200080F83C20CA688C6822F4407222434C68CE
:1027300022F4806222430C6822F4006222430C6976
:1027400022F4805222434C6922F400522243C96988
:10275000002322F480420A4301684A6480F83C3036
:10276000002010BD022010BD70B590F83C20012A59
:1027700026D0012480F83C40022280F83D200368E6
:102780005A689D6822F070060A6832435A600D4B01
:1027900002689A4208D0B2F1804F05D00A4B9A42A3
:1027A00002D00A4B9A4204D1496825F080031943AC
:1027B000916080F83D40002180F83C10084670BDD3
:1027C000022070BD002C01400004004000080040C1
:1027D00010B5040003D094F83D0010B107E00120CB
:1027E00010BD002084F83C00204600F01EF80220B6
:1027F00084F83D00211D206801F088FA012084F84A
:10280000460084F83E0084F83F0084F8400084F8D5
:10281000410084F8420084F8430084F8440084F8BE
:10282000450084F83D00002010BD704790F83D1031
:10283000012901D001207047022180F83D10016874
:10284000CA6842F00102CA6000680B49884208D099
:10285000B0F1804F05D00949884202D0084988422A
:1028600004D1816801F00701062903D0016841F015
:102870000101016000207047002C0140000400406D
:10288000000800402DE9F0410D46040003D094F803
:102890003D0018B108E00120BDE8F081002084F877
:1028A0003C00204600F040F8022084F83D002068FB
:1028B000816844F2070291438160211D206801F084
:1028C00025FA226890689169166A2B68AF690343FC
:1028D00040F20330814341EA0721A868EF690843C9
:1028E0004FF6FC418843E96840EA07200143286924
:1028F0002F6A000140EA0730084369686D6926F0D5
:10290000220646EA0515294393602268906154F82F
:10291000460B0162012004F81F09E0752076E0767D
:102920002077A0750020B7E700B585B000210091A1
:1029300001910291039101681A48B1F1804F1BD0B7
:10294000194A914216D1C16941F00401C161C169BE
:1029500001F004010491816941F0080181618069FD
:10296000694600F008000490C02000900F4800BFA6
:10297000FFF7E4F805B000BDC16941F00101C16194
:10298000C16901F001010491816941F00401816193
:102990008069694600F00400049003200090044818
:1029A000E6E700000010024000080040000C014073
:1029B0000008014070B590F83E60044690F83F5022
:1029C00090F8423090F84320022021B104290ED023
:1029D000012E1BD114E0012E18D1012B16D184F841
:1029E0003E0084F8420001220021206820E0012DF1
:1029F0000CD1012A0AD184F83F0084F8430014E086
:102A0000012D03D1012B01D1012A01D0012070BD7C
:102A100084F83E0084F83F0084F8420084F84300C4
:102A200001220021206801F0ADF901220421206873
:102A300001F0A8F92068016841F00101016000205F
:102A400070BD70472DE9F04104460068C66805690D
:102A50004FF00007A90713D5B10711D5F91E016181
:102A600001202077206880698007204602D0FFF788
:102A7000E8FF04E000F0A4F8204600F049F92777C9
:102A8000680716D5700714D521686FF00400086137
:102A9000022020772068806910F4407F204602D011
:102AA000FFF7CFFF04E000F08BF8204600F030F98C
:102AB0002777280715D5300713D521686FF0080050
:102AC0000861042020772068C0698007204602D072
:102AD000FFF7B7FF04E000F073F8204600F018F9A4
:102AE0002777E80616D5F00614D521686FF0100098
:102AF0000861082020772068C06910F4407F2046D4
:102B000002D0FFF79EFF04E000F05AF8204600F0E4
:102B1000FFF82777E80708D0F00706D021686FF0A4
:102B200001000861204600F043F9280608D5300668
:102B300006D521686FF0800008612046FFF7E8FDA8
:102B4000680608D5700606D521686FF04000086158
:102B5000204600F037F9A8060AD5B00608D5216846
:102B60006FF0200008612046BDE8F041FFF7D1BDBD
:102B7000BDE8F08100B585B000210091019102917E
:102B8000039100680B49884212D10B48816941F0DA
:102B9000040181618069694600F0040004904FF4EB
:102BA000106000900220019003900448FEF7C6FFD9
:102BB00005B000BD002C014000100240000801409B
:102BC000704770B5044690F83C0000260D46012879
:102BD0000FD0012084F83C006AB1042A1DD0082AD5
:102BE0002FD00C2A3FD00126002084F83C0030462C
:102BF00070BD022070BD206801F0D2F820688169A4
:102C000041F0080181612068816921F0040181613E
:102C1000206881692A69114311E0206801F0E8F811
:102C20002068816941F4006181612068816921F433
:102C300080618161206881692A6941EA022181619C
:102C4000D2E7206801F000F92068C16941F008016D
:102C5000C1612068C16921F00401C1612068C169B6
:102C60002A69114311E0206801F01AF92068C1694E
:102C700041F40061C1612068C16921F48061C161D2
:102C80002068C1692A6941EA0221C161ACE710B537
:102C9000040003D094F83D0010B107E0012010BDFE
:102CA000002084F83C00204600F01EF8022084F842
:102CB0003D00211D206801F029F8012084F846001C
:102CC00084F83E0084F83F0084F8400084F8410016
:102CD00084F8420084F8430084F8440084F84500F6
:102CE00084F83D00002010BD08B500680649884200
:102CF00008D10648816941F400618161806900F46E
:102D00000060009008BD0000002C0140001002404F
:102D10007047000010B50446022249B104290ED0C4
:102D2000082913D094F84100012816D0012010BDC5
:102D300094F83E000128F9D184F83E200FE094F881
:102D40003F000128F2D184F83F2008E094F84000C9
:102D50000128EBD184F8402001E084F841200122D1
:102D6000206801F00FF80F492068884203D1426CB7
:102D700042F4004242642068884208D0B0F1804F9B
:102D800005D00949884202D00849884204D18168A7
:102D900001F00701062903D0016841F0010101603B
:102DA000002010BD002C014000040040000800403D
:102DB00000680349884201D1FFF754B97047000009
:102DC000000400407047704770470000F8B5016884
:102DD00004460868CA684B6910F00F0F4FF00005F1
:102DE00059D003F0010602F49077374365D0C1074C
:102DF00005D0D10503D5616C41F001016164410743
:102E000005D5D90703D0616C41F0020161648107E7
:102E100005D5D90703D0616C41F004016164010755
:102E200007D502F02001314303D0616C41F0080165
:102E30006164616C00293AD0800604D5900602D501
:102E4000204601F003F920684069616CC0F38010EE
:102E5000090700D460B3204601F0C3F82068406938
:102E6000400621D52068143050E8001F21F04001B1
:102E700040E80012002AF5D1E06BA8B16D4941632A
:102E8000E06BFEF7EDFC002811D0E06B416B01B068
:102E9000BDE8F040084783060FD593060DD52046C0
:102EA000BDE8F84001F0D2B82046FFF78DFFF8BD2D
:102EB0002046FFF789FF6564F8BD266B2023012EAD
:102EC0007CD1C6067AD5D60678D5086848680090C1
:102ED00048694FF00206400640D5E16B086840683B
:102EE0000004000CE8D0A28D8242E5D9E085886913
:102EF00020282DD020680C3050E8001F21F480716C
:102F000040E80012002AF5D12068143050E8001F74
:102F100021F0010140E80012002AF5D120681430A8
:102F200050E8001F21F0400140E80012002AF5D1CE
:102F300084F84230256320680C3050E8001F21F0EF
:102F4000100140E80012002AF5D1E06BFEF765FCA5
:102F50006663A08DE18D401A81B22AE0A08DE18DDB
:102F6000401A81B2E08D0028A6D00029A4D02268A2
:102F70000C3252E8000F20F4907042E80007002F56
:102F8000F5D12068143050E8002F22F0010240E80B
:102F90000027002FF5D184F84230256320680C30DB
:102FA00050E8002F22F0100240E80023002BF5D15A
:102FB00066632046FFF707FFF8BDFFE705062BD540
:102FC000150629D594F841002128F5D1A068B0F55F
:102FD000805F01D12069B0B1206A411C2162216863
:102FE00000784860E08C401E0004000CE084E3D1CF
:102FF0002068C16821F08001C1602068C16841F08B
:103000004001C160D8E7206A0088C0F3080048602A
:10301000206A801C2062E5E74006CDD55006CBD55E
:10302000CA68204622F04002CA6084F8413000F0AD
:10303000B4F8C1E7E53E000870B5040004D094F888
:103040004100002510B106E0012070BD84F8405019
:10305000204600F023F8242084F841002068C1684D
:1030600021F40051C160204601F052F82068016946
:1030700021F4904101612068416921F02A014161F8
:103080002068C16841F40051C1606564202084F863
:10309000410084F842006563002070BD70B586B0C1
:1030A0000025064600950195029503950068224982
:1030B00088423ED12149C86940F48020C861C8696E
:1030C00000F480200490886940F0080088618869D5
:1030D0001B4C00F00800049008150090022001909D
:1030E0000320039069462046FEF728FDE014CDE951
:1030F0000005694620460295FEF720FD124C114856
:10310000C4E900058020C4E9025025616561A5611C
:103110002046E561FEF79AFC08B1FEF77CFBF463FC
:103120000022052127206662FFF734F82720FFF7E9
:1031300023F806B070BD00000048004000100240B7
:10314000000C0140300002406805002090F8423039
:10315000202B01D00220704721B11AB10023036354
:1031600001F032B801207047084908B588420BD1F8
:10317000084800236A460649006804F051FA032211
:1031800003490248FFF7E2FF08BD000020050020C8
:10319000700000207400002070477047FEE701684F
:1031A0004A69D24352050FD46FF480624A6100210C
:1031B00040F8301F202242738173026942F00402FA
:1031C0000261017301207047002070472DE9F84328
:1031D000044600680D46DDE90897016898461646E2
:1031E00041F4807101604B4600224FF001112046EE
:1031F000009700F06BF848B120680068C00502D560
:103200004FF4007020640320BDE8F883216805F0C6
:10321000FE0008613B464A461549204600F09EF8EC
:1032200088B920684169806900903A46494620463D
:1032300000F0F2F848B1206C042804D1206801683D
:1032400041F4007101600120DEE7F5B2B8F1010F31
:1032500009D02168300A08613A464946204600F004
:10326000DBF80028E7D1206805610020CCE70000EA
:103270000200010070B516460D4604461EE02046C9
:10328000FFF78DFF08B1012070BD681C16D0FEF756
:103290004FFD801BA84200D885B920684069C04313
:1032A00040070BD5002044F8300F20216173A07334
:1032B000216941F0200121612073E4E72068406921
:1032C000C0434007DBD4002070BD00002DE9F0476B
:1032D000984617460D460446C1F30746DDF8209090
:1032E0002AE000BFB8F1FF3F26D0FEF721FDA0EB9A
:1032F0000901414502D8B8F1000F1DD12068012E07
:1033000016D0806925EA00000004000C12D00020CD
:10331000B84211D1002044F8300F20216173A0730E
:10332000216941F02001216120730120BDE8F0876F
:103330004069E7E70120EBE72068012E0AD08069A9
:1033400025EA00000004000C06D00020B842C9D0D5
:103350000020EBE74069F3E70120F7E72DE9F047AC
:10336000984616460D4604464FF000094FF0200AD5
:10337000C1F3074723E020684069C043400515D4E6
:103380002068016841F40071016021686FF4806079
:103390004861C4F8309084F83DA084F83E90216CD8
:1033A00041F00401216484F83C9021E0701C06D0B7
:1033B000FEF7BEFCA0EB0800B04203D816B1012F07
:1033C0001FD021E02068012F15D0806925EA000078
:1033D0000004000C18D000BF44F8309F84F80DA002
:1033E00084F80E90216941F02001216184F80C904D
:1033F0000120BDE8F087406925EA00000004000CC8
:10340000EAD12068406901E02068806925EA00006F
:103410000004000CAFD1ECE770B516460D4604462B
:103420001EE02046FFF7BBFE08B1012070BD681CFE
:1034300016D0FEF77DFC801BA84200D885B9206815
:103440004069C04300060BD5002044F8300F20210E
:103450006173A073216941F0200121612073E4E7C9
:1034600020684069C0430006DBD4002070BD000026
:1034700010B50E4C002208212046FEF754FC00F047
:1034800017F8012210212046FEF74DFC00F010F83D
:10349000002210212046FEF746FC00F009F82046E5
:1034A0000122BDE810400821FEF73DBC000C0140A0
:1034B0000020401CC0B20A28FBD370470C4800B55E
:1034C000816985B041F0080181618069694600F039
:1034D0000800049018200090032003901120019010
:1034E0000448FEF72BFB00F09DF805B000BD00007E
:1034F00000100240000C014010B50C4C01220821C4
:103500002046FEF710FCFFF7D3FF012210212046D2
:10351000FEF709FCFFF7CCFF002210212046FEF742
:1035200002FCBDE81040FFF7C3BF0000000C0140E3
:103530002DE9F0410024134E074625466006040E8F
:10354000012210213046FEF7EEFBFFF7B1FF082104
:103550003046FEF7E3FB08B1641CE4B20022102100
:103560003046FEF7E0FBFFF7A3FF6D1CEDB2082D20
:10357000E4D327B1FFF77CFF2046BDE8F081FFF7D9
:10358000BBFFF9E7000C014070B5154E054600245D
:10359000280601D5012200E0002208213046FEF76E
:1035A000C2FBFFF785FF012210213046FEF7BBFB6F
:1035B000FFF77EFF002210213046FEF7B4FB072CF8
:1035C00004D1012208213046FEF7ADFB6806050E46
:1035D000FFF76EFF641CE4B2082CD9D370BD000065
:1035E000000C014010B50E4C012208212046FEF7C8
:1035F0009AFB012210212046FEF795FBFFF758FFAA
:10360000002208212046FEF78EFBFFF751FF002223
:1036100010212046FEF787FBBDE81040FFF748BFAA
:10362000000C014010B50A4C002208212046FEF78C
:103630007AFB012210212046FEF775FBFFF738FFC9
:1036400020460122BDE810400821FEF76CBB0000B7
:10365000000C014070B5104D012208212846FEF7EC
:1036600062FBFFF725FF012210212846FEF75BFBD6
:10367000FFF71EFF08212846FEF750FB08B1012482
:1036800000E00024002210212846FEF74CFBFFF743
:103690000FFF204670BD0000000C01407CB51446B1
:1036A0000D4606466B4606224321682000F010F8BE
:1036B00000280BD1BDF8001049BA3180BDF80210C6
:1036C00049BA2980BDF8041049BA21807CBD0000A8
:1036D0002DE9F0411D4614460F460646FFF782FFCE
:1036E0007006000EFFF750FFFFF7B4FF20B1FFF7A1
:1036F00099FF0120BDE8F0813846FFF745FFFFF74D
:10370000A9FFFFF76FFF012000EB4600C0B2FFF7F3
:103710003BFFFFF79FFF09E0012C0DD05FF0010098
:10372000FFF706FF641E05F8010BE4B2002CF3D18D
:10373000FFF778FF0020DDE70020F1E72DE9F041F9
:103740001E4615460F460446FFF74CFF6006000E66
:10375000FFF71AFFFFF77EFF60B93846FFF714FF47
:10376000FFF778FF00240CE0305DFFF70DFFFFF757
:1037700071FF20B1FFF756FF0120BDE8F081641C06
:10378000E4B2AC42F0D3FFF74DFF0020F5E70000B4
:10379000094808B5416941F00101416140690022D1
:1037A00000F00100009005210D20FEF7F3FCBDE8BC
:1037B00008400D20FEF7E0BC0010024010B59CB0A0
:1037C0001C2216496846FCF7AEFE0021684603F04D
:1037D000ADF8134C11491C2220601C3107A8FCF7DE
:1037E000A2FE002107A803F0A1F80C4960601C228A
:1037F00038310EA8FCF797FE00210EA803F096F8CA
:103800000649A0601C22543115A8FCF78CFE00214B
:1038100015A803F08BF8E0601CB010BDACA3000845
:103820007C0000202DE9F04385B000242D48009451
:10383000019402940394816941F0100181618169CE
:1038400001F010010491816941F0200181618169D9
:1038500001F020010491816941F0040181618169D5
:1038600001F004010491816941F0080181618069DE
:10387000012200F00800DFF870805503049029460B
:103880004046FEF750FADFF864904FF4704700228C
:1038900039464846FEF747FA012218214846FEF706
:1038A00042FA0126CDE90056022569464046CDE997
:1038B0000245FEF743F90097CDE9016569464846A0
:1038C0000395FEF73BF9182000901120CDE9010483
:1038D0000320039069464846FEF730F905B0BDE87D
:1038E000F08300000010024000100140000C014075
:1038F0000D4810B50B4901600C49416000214FF49F
:1039000080428160C0E9031241618161C16101624D
:10391000FEF714FA002803D0BDE81040FDF77BBF86
:1039200010BD000000540040F4030020A0860100F8
:1039300010B592B000240F941C2168461094FCF737
:103940002CFE202107A8FCF728FE2448224901600C
:103950000321C0E9011440F28331C0E9031444613A
:103960008461FFF794F908B1FDF755FF0F940FA993
:103970001A481094FEF7F8FE08B1FDF74CFF6020DE
:10398000CDE900040294039404940594002269464E
:1039900012480694FFF715F908B1FDF73CFF0C2219
:1039A00069460E48FFF70DF908B1FDF734FF07949B
:1039B000089409944FF400500A94CDE90B4007A9EC
:1039C00006480E94FEF7A6FE08B1FDF724FF034853
:1039D000FFF7D0F812B010BD002C014048040020C1
:1039E00010B58CB024216846FCF7D7FD002416489A
:1039F00009944FF080410A94C0E900144FF6FF711A
:103A0000C0E90241046184610320CDE90004012082
:103A1000CDE9020408210491CDE90540CDE9074133
:103A200069460948FEF72EFF08B1FDF7F4FE099438
:103A300009A905480A94FEF797FE002801D0FDF772
:103A4000EAFE0CB010BD00009004002010B58CB050
:103A500024216846FCF7A1FD002416480994144966
:103A60000A94C0E900144FF6FF71C0E902410461F5
:103A700084610320CDE900040120CDE9020408217E
:103A80000491CDE90540CDE9074169460948FEF7B3
:103A9000F9FE08B1FDF7BFFE099409A905480A948B
:103AA000FEF762FE002801D0FDF7B5FE0CB010BD98
:103AB00000080040D80400200C4810B50A490160F5
:103AC0004FF4E1314160002181600C22C160C0E906
:103AD00004128161C161FFF7AFFA002803D0BDE88D
:103AE0001040FDF798BE10BD0048004020050020A2
:103AF000FEE7FEE770B5002404F1B000C0B200F0AC
:103B00008DF8002000F08AF8102000F087F80025DA
:103B1000002000F095F86D1CEDB2802DF8D3641CE8
:103B2000E4B2082CE8D370BD10B5C820FDF7F4FF4F
:103B3000BDE8104000F098BB10B50446B031C8B2E3
:103B400000F06CF8102040EA141000F067F804F060
:103B50000F00BDE8104000F061B800002DE9F04111
:103B6000203A00240D468046D6B27F2803D9002093
:103B70008D1C8046EDB2102B29460FD0FFF7DCFFDD
:103B8000164906EB460001EB4005285D00F058F8A9
:103B9000641CE4B2062CF8D3BDE8F081FFF7CCFF3B
:103BA0000F4F00BF04EB0610385C00F049F8641CAE
:103BB000E4B2082CF6D36D1CE9B24046FFF7BCFF17
:103BC0005FF0000404EB06103844007A00F038F887
:103BD000641CE4B2082CF5D3DEE70000E29900088B
:103BE0000A9C00082DE9F041984617460E46044607
:103BF00000250DE0434631462046FFF7AFFF08346D
:103C0000E4B2782C02D90024B61CF6B26D1CEDB2D9
:103C10007A5D002AEED1BDE8F081000001B584B0E4
:103C200001214FF4807204A88DE807000B460022A2
:103C300078210248FEF746F905B000BDF4030020E4
:103C400001B584B001214FF4807204A88DE807000B
:103C50000B46402278210248FEF734F905B000BD3A
:103C6000F403002080E80E007047012002F052FEAD
:103C7000FBE7000010B5502080F31188BFF34F8F91
:103C8000BFF36F8F03F068FE18B104494FF0805006
:103C90000860002080F3118810BD000004ED00E0F2
:103CA00030B58FB028216846FCF777FC14210AA8AC
:103CB000FCF773FC01210804CDE9001000240294F4
:103CC00002250491CDE907504FF4E01009906846B1
:103CD000FEF78EFB08B172B6FEE70F20CDE90A05AC
:103CE0004FF48060CDE90C4002210AA80E94FEF743
:103CF00083FA002801D072B6FEE70FB030BD7047DE
:103D00000148FEF79FBE0000AC050020F0B5026838
:103D1000194B1A4C1A4D4FF08047984205D0B842C3
:103D200003D0A04201D0A84203D122F070064A6815
:103D30003243984205D0B84203D0A04201D0A842F5
:103D400003D122F44074CA6822434C6922F08002F5
:103D5000224302608A68C2620A688262984201D184
:103D600009690163012141610169C90703D0016942
:103D700021F001010161F0BD002C01400004004070
:103D80000008004010B501F01F030121046A9940AA
:103D90008C430462016A9A401143016210BD000025
:103DA00030B5036A026A22F0010202624268846945
:103DB00024F073050C682C4323F002058B682B4319
:103DC0000A4DA8420BD123F00805CB6822F44072BB
:103DD0002B434D6923F0040315438A692A4342604B
:103DE000846149684163036230BD0000002C0140DA
:103DF00030B5026A036A23F01003036243688469E2
:103E00000D6824F4E64444EA05248D6822F020027B
:103E100042EA05120B4DA8420ED1CD6822F0800275
:103E200042EA05124D6923F4406343EA85038D6934
:103E300022F0400243EA850343608461496881635C
:103E4000026230BD002C014030B5036A026A22F4E0
:103E5000807202624268C46923F4007324F073051F
:103E60000C682C438D6843EA05230C4DA8420ED103
:103E7000CD6823F4006343EA05234D6922F44052E0
:103E800042EA05128D6923F4806342EA051242601A
:103E9000C4614968C163036230BD0000002C014069
:103EA00030B5046A026A22F4805202624268C36931
:103EB0000D6823F4E64343EA05238D6824F4005497
:103EC00044EA0534064DA84204D14D6922F48042EB
:103ED00042EA85124260C36149680164046230BDF0
:103EE000002C014010B5406A0021C185C184FEF755
:103EF0006BFF10BD70B5446A2068406994F84110AA
:103F0000C0F3C0100025212904D118B1E584204652
:103F100000F08EF82068406994F84210C0F38010D9
:103F2000222904D118B1E585204600F05AF8606CCA
:103F300040F0100060642046FEF746FF70BD10B5EB
:103F40000146406A096809684FF0000289062ED4CC
:103F5000C28501680C3151E8003F23F4807341E8C9
:103F60000034002CF5D10168143151E8003F23F0F2
:103F7000010341E80034002CF5D10168143151E807
:103F8000003F23F0400341E80034002CF5D120210C
:103F900080F84210016B012909D101680C3151E808
:103FA000003F23F0100341E80034002CF5D14263B8
:103FB000016B012902D0FFF7D7F810BD818DFEF704
:103FC00002FF10BD10B5406A01214163016B012958
:103FD00002D0FFF7E1F810BD818D4908FEF7F3FE2E
:103FE00010BD01680C3151E8002F22F4907241E8B5
:103FF0000023002BF5D10168143151E8002F22F085
:10400000010241E80023002BF5D1016B012909D100
:1040100001680C3151E8002F22F0100241E8002322
:10402000002BF5D1202180F8421000210163704758
:1040300001680C3151E8002F22F0C00241E8002352
:10404000002BF5D1202180F84110704708B590F879
:104050004210222901D0022008BD82684FF480530B
:104060009A4201D1016921B1816A9A421BD04AB1B9
:104070000AE00268816A5268C2F308020A80816A13
:10408000891C08E0026972B10268526802F07F027E
:104090000A70816A491C8162C18D491E0904090C9C
:1040A000C18503D01BE002685268F1E70168CA6865
:1040B00022F02002CA600168CA6822F48072CA60D5
:1040C00001684A6922F001024A61202180F8421009
:1040D00000214163026B012A03D0FFF745F800205D
:1040E00008BD016301680C3151E8002F22F0100275
:1040F00041E80023002BF5D101680A68D20602D5F9
:104100000A6849680091818DFEF75DFEE7E70000CF
:1041100070B5044600680169E26821F4405111431A
:1041200001612169A0680843616908432168CA6880
:1041300041F20C639A430243CA6020684169A26954
:1041400021F44071114341611E492068884202D127
:10415000FEF718F901E0FEF705F900EBC00101EBED
:104160000012606864218000B2FBF0F3B3FBF1F34E
:104170006FF018067343B2FBF0F5B2FBF0F605EBF7
:104180008305322303EB0515B5FBF1F5B6FBF1F61C
:1041900005F0F00505EB0615B2FBF0F6B2FBF0F00A
:1041A000B0FBF1F06FF01802504306EB800003EB18
:1041B0000010B0FBF1F0216800F00F002844886087
:1041C00070BD00000038014038B581620446828528
:1041D000002013466064222284F84220E56B1B4ACB
:1041E000AA62E56B1A4AEA62E56B1A4A2A63E26B35
:1041F00050630A462168E06B091DFDF755FC2068F5
:10420000016840680090206948B120680C3050E88F
:10421000001F41F4807140E80012002AF5D12068A7
:10422000143050E8001F41F0010140E80012002A5C
:10423000F5D12068143050E8001F41F0400140E8FB
:104240000012002AF5D1002038BD00003F3F0008D1
:10425000C53F0008F53E00080148FEF7B7BD000065
:1042600020050020FEE70000FEB50024094F4FF4B2
:10427000807501263819CDE9000601230022782136
:1042800002950548FDF71EFE641CE4B21B2CF1D319
:10429000FEBD000054000020F4030020490050EA55
:1042A000C12018BF04204A0D18BF40F0010040F2A1
:1042B000FF72B2EB515F08BF40F00200012808BF57
:1042C000052070470907090E002804DB00F1E020F3
:1042D00080F80014704700F00F0000F1E02080F833
:1042E000141D70472DE9F0414F1E00EBC701044635
:1042F000D1E9000115461E4637F006020DD02A46C8
:10430000334603F0C7FE7F1E04EBC703D3E9002347
:1043100003F0B8FC37F00602F1D1022F25D0042FAC
:1043200013D0062F18BFBDE8F0812A46334603F0AC
:10433000B1FED4E90A2303F0A5FC2A46334603F074
:10434000A9FED4E9082303F09DFC2A46334603F076
:10435000A1FED4E9062303F095FC2A46334603F078
:1043600099FED4E9042303F08DFC2A46334603F07A
:1043700091FED4E9022303F085FC2A46334603F07C
:1043800089FED4E90023BDE8F04103F07BBC0122A3
:1043900004F097BC03F076BC002213461046114689
:1043A00003F020BD024A0020110704F08ABC00007F
:1043B00001FDFFFF2DE9FE4F07460E46002568462A
:1043C00000F0EEFF00246FF00F0AE8464FF00109FD
:1043D00057F8240056F82410401A00D5404204F043
:1043E000C5FA514604F09BFC58F8241011F0FF4F19
:1043F0000BD004F0BDF94FF07E5104F0B9FB0A492F
:1044000020F00040884205DC07E0084908440849DC
:10441000884202D309FA04F00543641C032CD7DB5D
:104420002846BDE8FE8F0000295C0F3E666666C127
:104430009A99D9002DE9F04D8D4F21F0004A86B0B0
:1044400005460C46BA452ADBAAEB070028430AD0EA
:104450008848824501DC1AD1CDB106B02846BDE8B6
:10446000F04DFFF794BF844A844B284603F012FEB8
:1044700007460E46824A834B2846214603F00AFE31
:1044800006B03A463346BDE8F04D03F0FBBB0120D1
:10449000FCF729F906B0BDE8F04DFFF77DBF7A487B
:1044A000824542DABAF1795F0BDA2846FFF7F6FE69
:1044B000042808BFFFF776FF284606B02146BDE86E
:1044C000F08D2A460B46104603F0E4FD8346024673
:1044D0006E480E460B4606217844FFF703FF5A4606
:1044E000334603F0D7FD804669488A465A4633462C
:1044F00004217844FFF7F6FE5A46334603F0CAFD1E
:1045000000223B4603F0BEFB02460B4640465146A6
:1045100003F068FC2A46234603F0BCFD06B02A4699
:104520002346BDE8F04D03F0ADBB284624F0004122
:1045300000223D463B4603F0ABFE4FF0FF3204F055
:10454000C0FB0646024653480F460B4606217844F8
:10455000FFF7C8FE32463B4603F09CFDCDE9000163
:104560004D4832463B4604217844FFF7BBFE3246B5
:104570003B4603F08FFD00222B4603F083FB83466E
:1045800002913046394602F047FD804643480D46C9
:10459000504517DCDDE900015A46029B03F022FC7E
:1045A00042462B4603F076FD42462B4603F06AFB5B
:1045B000012204F086FB304A304B03F05BFF304AA7
:1045C000304B4CE04FF0000A52460B46404603F099
:1045D00059FBCDE9031052462B461046194603F00D
:1045E00059FD32463B4603F053FEDDE9033203F04A
:1045F000F9FB06460F46DDE900015A46029B03F02F
:10460000F1FB8346009101223046394604F059FB04
:10461000194A1A4B03F03CFE06460F46012240465B
:10462000294604F04EFB5A46009B03F033FD324608
:104630003B4603F01FFF06460F460122504629461F
:1046400004F03FFB0E4DDFF858802A46434603F046
:104650001FFE32463B4603F01BFE2A46434603F04C
:1046600017FE002CD8BF81F0004106B0BDE8F08DE8
:104670000000F03F0000F07F075C143326A6913C59
:10468000182D4454FB21F93F0000E03F6C5F00000F
:10469000825F0000F65E00000C5F00003333EF3FE6
:1046A000FB21E93F2DE9F84F04460D4621F000407B
:1046B00000917349814211DC7249884201DC06D1C4
:1046C0002CB120462946BDE8F84FFFF760BE6E4882
:1046D000002DCCBF6D496E49BDE8F88F6D49814210
:1046E00011DD6D498142D8BF4FF0FF366DDD2046A8
:1046F0002946FFF7D3FD042808BFFFF753FE2046E5
:104700002946BDE8F88F6549654F25F0004581428F
:1047100033DD6449814219DD002632464FF0804383
:104720002046294603F0AEFA80468A4601222046FA
:10473000294604F0C6FA00223B4603F09BFE42469F
:10474000534603F04FFB04460D463EE0012600228F
:10475000BA463B462046294603F094FA80460F4667
:10476000002253462046294603F084FE42463B463B
:1047700003F038FB04460D4627E04B4981421BDD20
:10478000DFF828A10226002253462046294603F0DE
:1047900081FC00223B4603F075FA80460F4600225A
:1047A00053462046294603F065FE42463B4603F049
:1047B00019FB04460D4608E0032622462B4600203E
:1047C0003B4903F00FFB04460D4622462B4610469C
:1047D000194603F05FFC8B46824602460B4603F007
:1047E00059FC07460246334888460B460621784462
:1047F000FFF778FD52465B4603F04CFC82462E489C
:104800008B463A46434605217844FFF76BFD3A460E
:10481000434603F03FFC02460B46002E50465946E5
:104820000CDA03F02FFA22462B4603F033FC01B0DA
:1048300022462B46BDE8F04F03F02ABD03F022FAD2
:1048400022462B4603F026FC1C4A7A4402EBC603A0
:10485000D3E9002303F00EFE22462B4603F00AFEA6
:10486000174A7A4402EBC603D3E9002303F010FD94
:10487000009A002AB8BF81F00041BDE8F88F00001F
:10488000000010440000F07F182D4454FB21F93F34
:10489000FB21F9BF0000DC3F0000203E0000F33F99
:1048A0000000F03F0000E63F008003400000F83FBA
:1048B0000000F0BF0E5D0000CC5C00006A5C0000F0
:1048C000325C00002DE9F04D9446CCF1000423F059
:1048D00000464CEA0404524F46EAD4749A4688468D
:1048E00021F00042BC4206D8454240EA050442EAB3
:1048F000D474BC4204D9BDE8F04D6246FFF74ABD0E
:10490000AAF14055A5F17F6555EA0C040BD00224AD
:1049100004EAAA74434DDFF810E144EAD87452EA7D
:10492000000B04D00CE0BDE8F04DFFF7BBBE002C3F
:1049300014BF012CBDE8F08D022C30D0032C32D0F6
:1049400056EA0C0B0AD0BE4220D1BA4209D126F059
:10495000804622F080423346114617E000291ADBD8
:1049600025E0DFF8C8B0FB44002C04BFDBE9000100
:10497000BDE8F08D012C02BFDBE9000181F00041B0
:10498000BDE8F08D022C0AD0032C0CD0BA4212D113
:10499000B8F1000F0BDA23482549BDE8F08D284611
:1049A0002449BDE8F08D28467146BDE8F08D1D48CC
:1049B0002149BDE8F08D921B12153C2AC4BF19484D
:1049C0001D490EDCBAF1000FBEBF12F13C0F0020F2
:1049D000014606DB624603F005FA21F00041FFF7CD
:1049E00061FE002C08BFBDE8F08D012C04BF81F0F2
:1049F0000041BDE8F08D114A114B022C07D003F0A5
:104A000039FD2A46BDE8F04D0A4B03F033BD03F0F3
:104A100031FD2A46BDE8F04D064B03F039BC0000DD
:104A20000000F07F182D4454FB2109C0C65B000034
:104A3000FB21F9BFFB210940FB21F93F075C14333F
:104A400026A6A13C08B560B120208DF800002820E2
:104A50008DF8010030208DF8020038208DF8030019
:104A600004E0A32204216846FBF78FFD6A46042177
:104A700040F69E2001F024FF01F0E2FB08BD00009B
:104A80003EB5044602208DF80000CA208DF80100D2
:104A9000E3208DF8020009208DF803006A46042106
:104AA000682001F00DFFA3208DF80000610609D5F4
:104AB000C0218DF80110C8218DF80210C2218DF897
:104AC000031005E08DF801008DF802008DF8030059
:104AD00014F4C07F09D0C4218DF80410CC218DF8C6
:104AE0000510C6218DF8061005E08DF804008DF83C
:104AF00005008DF806008DF808008DF807008DF888
:104B000009006A460A2140F6A72001F0D9FEA00755
:104B10004FF0D80503D020208DF8000001E08DF87B
:104B200000506A46012140F6B62001F0C9FEA006F9
:104B300001D5012000E0002000F08EF814F4C07FC1
:104B40001ED0E0050AD5B2208DF800008B208DF82C
:104B50000100B6208DF802009B2009E0B0208DF8FE
:104B6000000080208DF80100B4208DF80200902014
:104B70008DF803006A46042140F6A22001F0A0FE51
:104B8000E1074FF40B6022D0F8218DF800106A463F
:104B9000012101F095FEFA21072000F039FB0720E2
:104BA00000F004FB012000F021FB642000F0C4FBB6
:104BB0004FF4FA7000F0D0FBC821254800F0BEFA8F
:104BC000282000F0D3FA0A2000F0E0FA05E08DF882
:104BD00000506A46012101F073FEA00703D5D920D9
:104BE0008DF8000001E08DF800506A46012140F286
:104BF0003D7001F065FE600701D5012000E0002056
:104C000000F048F8E00601D5012000E00020FFF7A1
:104C100019FF104D44F00800688101F011FB0020DD
:104C2000A873600601D50620A87314F4C07F02D0D3
:104C3000A87B801DA87314F0140F02D0A87B10303D
:104C4000A873A00702D0A87B001DA87300203EBD5A
:104C500009E3CA02040100200EB54FF4976310B1B6
:104C600006A107C901E008A207CA8DE807006A4645
:104C70000921184601F024FE0EBD0000B8AAB38D2C
:104C8000B4980D355D000000B8AAAAAAB088C3C5C3
:104C9000C700000008B560B1C0208DF80000C22038
:104CA0008DF80100C4208DF80200C6208DF80300A5
:104CB00004E08B2204216846FBF767FC6A46042166
:104CC00040F6982001F0FCFD01F0BAFA08BD0000A2
:104CD000C8234FF48062024940F6F63001F092B9E1
:104CE000EC8D00082DE9FF4F89B01746DDE916521B
:104CF00000244C4E884681462C80A246B07B6946F3
:104D000001F02CFA4FF0FF3B18B158460DB0BDE84A
:104D1000F08F708910F0140F3CD0009909BA21F07F
:104D2000FF039DF803100B433B6001991B1409BA64
:104D300021F0FF029DF807105B430A437A60029955
:104D40009DF80B4009BA21F0FF012143B960039C93
:104D5000091424BA24F0FF0C9DF80F4012144CEAF9
:104D6000040CC7F80CC04FEA2C47494302FB02323F
:104D700007FB071111441024A1F17061B1F1007F0C
:104D800004D901F05DFAA5F800A0BEE7298841F436
:104D9000807129804206694611D50A19A41D13881D
:104DA0005BBAA8F8003053885BBAA8F80230928842
:104DB00052BAA8F804202A8842F008022A8010F487
:104DC000C07F11D00A19A41D13885BBAA9F800305E
:104DD00053885BBAA9F80230928852BAA9F8042025
:104DE0002A8842F070022A80800716D00C44E078AE
:104DF00000F0C00500F03F016078C00706D0C80889
:104E000001F007013268491C02B190476078000741
:104E100003D5716809B1A80988470C9800F098FD7E
:104E2000002073E7040100202DE9FF41044603A898
:104E300000F0D0FFBDF80C00410CC3032F480289DD
:104E400002F00300550754F8200000D54042C2F399
:104E5000C105960654F8255000D56D42C2F381165F
:104E6000D20554F8264000D56442A0FB0367C21760
:104E700002FB037200FB0120820042EA9670A5FB50
:104E80000367EA1702FB037205FB0122950045EA5E
:104E90009672A4FB0367E51705FB037304FB01315E
:104EA0008B0043EA9671030E8DF80030030C8DF8E9
:104EB0000130030A8DF802308DF80300100E8DF8D2
:104EC0000400100C8DF80500100A8DF80600080E7D
:104ED0008DF80800080C8DF80900080A8DF80A0002
:104EE0008DF807208DF80B106A460C214FF42570C1
:104EF00001F0E6FC04B0BDE8F081000004010020F0
:104F000030B5044613A285B007CA8DE807004FF0FC
:104F1000FF35C82C16D8C820B0FBF4F1491E080A8A
:104F20008DF80C008DF80D1003AA022140F2162016
:104F300001F0C6FC30B96A460C2140F6C12001F0F0
:104F4000BFFC10B1284605B030BD05488481002063
:104F5000F9E70000FEF2ABC4AAF1DFDFBBAFDFDF91
:104F600004010020F8B53049098901F0030250F826
:104F700022404A0700D56442C1F3C1028B0650F8B3
:104F8000222000D55242C1F3811350F82330C805C6
:104F900000D55B42254984FB0140850045EA9470B9
:104FA00082FB0142A40F44EA820483FB0121950F96
:104FB00045EA8105010E8DF80010010C8DF80110F5
:104FC000010A8DF802108DF803006A4604214FF49F
:104FD000747001F075FC4FF0FF3688B9200E8DF823
:104FE0000000200C8DF80100200A8DF802008DF8D9
:104FF00003406A4604214FF4757001F061FC08B16A
:105000003046F8BD280E8DF80000280C8DF8010000
:10501000280A8DF802008DF803506A4604214FF4E7
:10502000767001F04DFCF8BD0401002009E3CA02CE
:105030002DE9FF4104463CA004F003030068029000
:105040003AA0006803903AA006683AA0056802A852
:10505000C15C8DF80010C4F3C101425C8DF80120E1
:10506000C4F38112805C8DF8020003A8C35C8DF844
:105070000430415C8DF80510805C8DF806006A46AE
:10508000032140F2264001F01BFC4FF0FF37E0BB4C
:1050900001AA032140F22A4001F012FCA8BBCDE98D
:1050A000006560070BD59DF8000040F001008DF809
:1050B00000009DF8040040F001008DF80400A006F7
:1050C0000BD59DF8010040F001008DF801009DF81E
:1050D000050040F001008DF80500E0050BD59DF8B6
:1050E000020040F001008DF802009DF8060040F03B
:1050F00001008DF806006A4603214FF4886001F034
:10510000DFFB10B901AA032100E004E040F23140C6
:1051100001F0D6FB18B1384604B0BDE8F08106486E
:1051200004810020F8E700004CCD6C000CC92C0075
:105130003656760026466600040100204FF47A7247
:1051400090FBF2F008B54843010E8DF80010010CF9
:105150008DF80110010A8DF802108DF803006A46DF
:1051600004214FF4AE7001F0ABFB08BD0521B0FB8C
:10517000F1F008B5010A8DF800108DF801006A46BB
:1051800002214FF4AD7001F09BFB08BD0521B0FB7F
:10519000F1F008B5010A8DF800108DF801006A469B
:1051A00002214FF4AC7001F08BFB08BD08B5002163
:1051B0008DF80010C10702D030218DF80010810752
:1051C00005D59DF8001041F00C018DF80010400746
:1051D00005D59DF8000040F003008DF800006A46F8
:1051E00001214FF4A47001F06BFB08BD08B560B15C
:1051F000042800D90420401E8DF800006A460121D1
:1052000040F24F1001F05CFB08BD0120F3E7000005
:105210002DE9FC41054640074FF0FF367CD0B1F543
:10522000C86F79D8084603F0B9FB3E4903F0A0FAED
:10523000074601A800F0B0FD9DF80400022806D042
:1052400004280DD008282ED0102865D134E00E2176
:10525000384603F064FD03F069FB84B2324907E08D
:105260000D21384603F05BFD03F060FB2F4984B24B
:10527000384603F0A7FB03F059FB210A8DF8001014
:1052800080B28DF80140010A8DF802108DF80300FC
:10529000E8076C4620D0224602214FF4EA7001F064
:1052A0000FFBC8BB11E00C21384603F038FD03F0BA
:1052B0003DFB84B21E49DBE70B21384603F02FFD8E
:1052C00003F034FB84B21B49D2E7A21C02214FF445
:1052D000927001F0F5FAF8B9A8070DD56A460221D7
:1052E0004FF4EC7001F0ECFAB0B9A21C02214FF4BB
:1052F000947001F0E5FA78B9680710D56A46022182
:105300004FF4EE7001F0DCFA30B9A21C02214FF428
:10531000967001F0D5FA10B13046BDE8FC8100204E
:10532000FBE7000000004843000040460000C04585
:10533000000040450000C0440521B0FBF1F008B575
:10534000010A8DF800108DF801006A4602214FF421
:10535000EF7001F0B5FA08BD0521B0FBF1F008B51A
:10536000010A8DF800108DF801006A4602214FF401
:10537000ED7001F0A5FA08BD03480168486A0022F3
:1053800000B24A62704700009004002003480168A0
:10539000486A4042002200B24A627047D8040020A6
:1053A0002DE9FE430646264801AB042240680D2144
:1053B0000078FEF78DF910B10720BDE8FE839DF857
:1053C00004101C2000EAD1029DF80710DFF8749049
:1053D000C1F301131A438DF800209DF80520C1F395
:1053E000810300EAD2021A438DF801209DF80620BD
:1053F00001F0030100EAD20008430024124F8DF8A7
:105400000200A0466D46285D10B146F824900AE0DF
:1054100046F824800DE000BF56F82400394603F01A
:10542000D1FA46F82400285D401E10F0FF002855F0
:10543000F2D1641CE4B2032CE5D30020BDE70000E8
:10544000000000207B14AE3E1D5A843F2DE9FE4F24
:1054500005460120C14E8DF800004FF000088DF880
:10546000018030680C461746817C70686B460222CA
:105470000078FEF763F94FF0FF3A00287AD1C82090
:10548000FCF74AFB8DF8008030686B460122C17B37
:1054900070680078FEF752F90028EFD130686B464B
:1054A0000122417970680078FEF748F90028E5D1BB
:1054B00030686B460122817C70680078FEF73EF907
:1054C0000028DBD130686B460122C17D706800780E
:1054D000FEF734F90028D1D130686B4601220179FA
:1054E00070680078FEF72AF90028C7D14FF00C0940
:1054F0008DF8009030686B46012201797068007861
:10550000FEF71CF9002835D10F20FCF705FBB06A27
:105510006B460122407A8DF800003068817870680F
:105520000078FEF70BF9002824D1B06A6B460122FF
:10553000007A8DF800003068417870680078FEF7D6
:10554000FDF8002873D1B06A807A0FB140F0E00016
:105550008DF8000030686B46012281797068007810
:10556000FEF7ECF8002862D12FB1B06AC07A40F0A3
:10557000E00001E04AE018208DF8000030686B463A
:105580000122C17970680078FEF7D8F8F0BB17B136
:10559000C820FCF7C1FA40208DF8000030686B4647
:1055A0000122017970680078FEF7C8F870BB782096
:1055B0008DF8000030686B460122417970680078F0
:1055C000FEF7BCF810BB3220FCF7A6FA8DF800807D
:1055D000306847466B464179706801220078FEF7D3
:1055E000ADF898B931687068B046897A00786B4632
:1055F0000222FEF76DF848B9BDF80000AF6040BA6E
:10560000B0FBF9F06F60C6B22F6000E00FE0A7605A
:1056100067602760002739E0D8F80010D8F8040048
:105620006B46C97A00780C22FEF752F810B150464A
:10563000BDE8FE8FBDF80000236840BA02B2BDF895
:105640000200BDF804101A44226040BA626800B239
:105650001044606049BAA06809B20844A060BDF86F
:1056600006002B6840BA02B2BDF808001A4440BADE
:1056700001B2BDF80A002A606A6840BA1144696044
:10568000A96800B208447F1CFFB2A860B742C3D328
:1056900028688322C117090441EA1041000400234D
:1056A000FAF7EEFD32460023FAF7EAFD2860686853
:1056B0008322C117090441EA104100040023FAF7CC
:1056C000DFFD32460023FAF7DBFD6860A86883221D
:1056D000C117090441EA104100040023FAF7D0FD84
:1056E00032460023FAF7CCFDA86020684FF400652D
:1056F000C117090441EA104100042A460023FAF7C1
:10570000BFFD32460023FAF7BBFD206060682A46E1
:10571000C117090441EA104100040023FAF7B0FD63
:1057200032460023FAF7ACFD6060A0682A46C11734
:10573000090441EA104100040023FAF7A1FD3246B2
:105740000023FAF79DFDA060002802DDA0F580305F
:1057500001E000F58030A060002069E70000002033
:105760002DE9F84F81462E488846002540686B4653
:10577000032200780D21FDF7ABFF10B10720BDE833
:10578000F88F9DF80000002400F01F008DF8000045
:105790009DF801006FF00F0B00F01F008DF8010065
:1057A0009DF802006E4600F01F008DF802004FF0D9
:1057B000010A00BF59F8241058F82400081A00D52F
:1057C000404203F0D3F8594603F0A9FA0746305D8A
:1057D000C0B1144802E0144903F0F4F8315D491EE9
:1057E00011F0FF013155F6D10146384602F0C0FFF5
:1057F0004FF07E5103F0BCF90C4920F00040884284
:1058000005DC07E00A483844B0F1D97F02D90AFA2A
:1058100004F00543641C032CCCDB2846AFE70000F2
:10582000000000200000C84154E3853F295C0F3E82
:105830000000E0BE00B5024600F00DF80346D01CA3
:1058400000F009F843EAC003901D00F004F843EAB1
:10585000801080B200BD90F90010002902DD4FF0E9
:105860000000704702DA4FF00400704790F9011011
:10587000002902DD4FF00100704702DA4FF0050009
:10588000704790F90200002802DD4FF002007047D7
:1058900002DA4FF0060070474FF0070070472DE91D
:1058A000F0410C460646174611464FF07E5003F075
:1058B0005FF9216803F086F805463946304603F063
:1058C00081F8294602F0ECFE2060BDE8F08100007E
:1058D000FCF7D0FBFEF7E4F9FDF7A4FFFDF758FF56
:1058E000FEF706F8FEF724F8FEF7E6F8FEF778F87C
:1058F000FEF7ACF8FEF718F9FEF7FCF800210E48A9
:10590000FDF708FA0C210C48FDF704FA3C210B487E
:10591000FDF750F83C210A48FDF74CF800F0E0FA9A
:105920000028FBD100F0E6F90028FBD1FDF746FF87
:1059300000F0F7FFFEE7000048040020900400207C
:10594000D804002001460020842900D0C81C7047DC
:10595000704700002DE9F041124C134E051E4FF424
:1059600000514FF480570CDD01222046FCF7DBF993
:10597000002239462046FCF7D6F9284601F0AEFA57
:105980000CE000222046FCF7CEF9012239462046E1
:10599000FCF7C9F9284601F0A1FA404231680864D1
:1059A000BDE8F081000C0140480400202DE9F041E1
:1059B000124C134E051E4FF480414FF400470CDD8E
:1059C00001222046FCF7AFF9002239462046FCF7B9
:1059D000AAF9284601F082FA0CE000222046FCF7E2
:1059E000A2F9012239462046FCF79DF9284601F02C
:1059F00075FA404231684863BDE8F081000C01400F
:105A00004804002070B5FFF7B7FC1C4CA080FFF7DE
:105A1000BDFCE0800146B4F90020B4F9040001F0B7
:105A2000E7FC2061A16802F03BFE154D0646B5F982
:105A30000C0002F09BFF01463246686801F01AFD37
:105A40006061B5F9100002F091FFA17849B201F050
:105A500009FB0146A061606902F022FE02F04AFFE4
:105A600000B2FFF777FFD4E9050103F081F802F0F7
:105A700041FFBDE8704000B2FFF798BF380000203A
:105A80008C010020134B002213491448FEF7EAF85A
:105A90000023134A13491448FEF7E4F8134B00227D
:105AA00013491448FEF7DEF8134D144C144E606889
:105AB000A84204DAB04202D2FFF7A4FF05E00020BA
:105AC000FFF748FF0020FFF771FF0A2001F0D8FB25
:105AD000EDE70000295C8FBE000028421401002081
